:1080000000400020F1DA000027DB000029DB00003F
:108010002BDB00002DDB00002FDB000025DB000048
:1080200025DB000025DB000025DB000031DB000044
:1080300033DB000025DB000035DB000037DB000010
:10804000E1880000BDBD00003DDB00003FDB00001B
:1080500041DB000043DB000045DB000047DB0000A4
:10806000B9D70000C1BD00004DDB00004FDB0000B0
:10807000C5C0000053DB000055DB000057DB0000EB
:1080800059DB00005BDB00005DDB00005FDB000014
:1080900061DB000063DB000065DB000067DB0000E4
:1080A0001DBA00006BDB00006DDB00006FDB000021
:1080B00071DB000073DB0000000000000000000026
:1080C00000000000000000000000000000000000B0
:1080D00000000000000000000000000000000000A0
:1080E0000000000000000000000000000000000090
:1080F0000000000000000000000000000000000080
:1081000010B5054C237833B9044B13B10448AFF3D1
:1081100000800123237010BD000A00200000000031
:108120002C42010008B5064B1BB106480649AFF3C7
:1081300000800648036813B1054B03B1984708BD9A
:10814000000000002C420100040A00204809002021
:1081500000000000154B002B08BF134B9D46A3F5F4
:10816000803A00218B460F461348144A121A05F034
:1081700045FD0F4B002B00D098470E4B002B00D035
:1081800098470020002104000D000D48002802D06F
:108190000C4807F0A9FF05F0FDFC2000290002F0C3
:1081A000A9FD05F0E7FC00BF00000800004000202A
:1081B0000000000000000000000A0020E42700206A
:1081C000E9000100A1100100204AD36A03F47053B2
:1081D000B3F5805F35D0B3F5005F04D0B3F5006F21
:1081E00004D11B4B00E01B4B18687047D36803F4A5
:1081F000E063B3F5007F16D008D8B3B1B3F5807F44
:108200001DD1154B154AD86C154B12E0B3F5806F94
:108210001AD0B3F5A06F04D0B3F5407F0FD1114849
:10822000704711487047114870470B4B104AD86C83
:10823000104BB0F1985F34BF1046184670470020CD
:1082400070474FF4004070470B48704700800C4067
:108250000400002000000020B081E00FC0CF6A00C1
:1082600040B56400809FD500003FAB01C0D8A70097
:1082700040420F00804F1200406F400108B5FFF7E9
:10828000A3FF044B5B6803F00F03D840024B186058
:1082900008BD00BF00800C402424002070474FF42C
:1082A00000407047014B1868704700BF0000002075
:1082B000FEE700000A494B6803F00702032A0CD8C6
:1082C000DFE802F00202070723F0070343F001038F
:1082D00003E023F0070343F003034B60704700BF44
:1082E00000000C40104A10B5104C11490244A24243
:1082F0004B680BD803F00702023A012A23F0070368
:1083000094BF43F0030343F001030BE0094A90429A
:1083100008D803F00702023A012A23F0070398BFA6
:1083200043F002034B6010BDFFDB0BFFFF23F400A3
:1083300000000C400024F400431EB3F5004F10B5BC
:10834000044603D304488721FFF7B2FFB4FA84F44C
:10835000E0B2C0F11F0010BDF4350100034B5A6DAF
:10836000D20702D41A6D1042FCD1704700800C4035
:10837000012810B5044604D90F4840F27711FFF7E1
:1083800097FF0E4B6400986AE04000F0030002285B
:1083900007D0032809D001280BD1BDE81040FFF712
:1083A0007EBFBDE81040FFF77DBFFFF767FF4008C5
:1083B00010BD002010BD00BFF435010000800C404E
:1083C000C0F30313013B10B50C46032B00F29A8057
:1083D000DFE803F002152E644B1EB3F5007F04D3D3
:1083E0004C4840F21A31FFF763FF2046FFF7A4FF25
:1083F000494B9A6822F00F021043986010BDB1F506
:10840000007F04D9434840F22231FFF751FFFFF7C4
:1084100051FF2046FFF790FF3F4B5A6822F00F02B2
:1084200010435860FFF72AFFBDE81040FFF75ABF1E
:108430003A4B984204D003F50433984214D029E013
:10844000B1F5004F04D9334840F25131FFF730FF06
:108450000420FFF783FF2046FFF76EFF2E4B9A6E36
:1084600022F00F02104313E0B1F5004F04D9294860
:1084700040F25F31FFF71CFF0420FFF76FFF20463B
:10848000FFF75AFF244B9A6E22F0F00242EA0010E6
:10849000986610BD1F4840F28B3136E0204B984261
:1084A00004D003F50433984213D027E0082904D9F7
:1084B000184840F29531FFF7FBFE4020FFF74EFFD2
:1084C0002046FFF739FF144B1A6F22F003021043C6
:1084D00012E0082904D90F484FF46971FFF7E8FE4C
:1084E0004020FFF73BFF2046FFF726FF0A4B1A6F9D
:1084F00022F0300242EA0010186710BD054840F231
:10850000B23102E003484FF46E71BDE81040FFF74E
:10851000CFBE00BFF435010000800C4030040800DD
:1085200040051400C0F30323013B70B50D46052B35
:1085300010D8DFE803F016190306090C0023124CCB
:1085400014E00123114C11E01023114C0EE0002324
:10855000104C0BE0104840F20D41BDE87040FFF7B1
:10856000A7BE00230D4C01E00D4C0023C0F30436E0
:1085700013B11846FFF7F2FE04F1047406EBC406CB
:10858000B600356070BD00BF40800C4058800C4084
:1085900060800C4078800C40F435010008800C406D
:1085A00044800C4000F00F00013808B503282ED895
:1085B000DFE800F002141E341A4BDB6A03F4705338
:1085C000B3F5805F08D0B3F5005F29D0B3F5006F35
:1085D0000CBF0420052008BD032008BD114B986A7C
:1085E00000F0030002281CD003280ED0012808E068
:1085F0000C4B9B6A03F00C03082B11D00C2B04D0FE
:10860000042B0CBF0320012008BD062008BD06482E
:1086100040F25551FFF74CFE002008BD072008BD71
:10862000022008BD00800C40F435010000F47810F1
:10863000B0F5202F08B53CD019D8B0F5802F2FD039
:1086400009D8002852D0B0F5003F57D1FFF7BCFD44
:108650002F4B9B682AE0B0F5C02F25D0B0F5002F36
:108660004CD10020FFF784FE294B9B6E1EE0B0F535
:10867000B01F2CD00DD8B0F5901F23D0B0F5A01F9F
:108680003CD10120FFF774FE214B1B6F03F0030365
:1086900016E0B0F5C01F22D0B0F5D01F35D02DE0C8
:1086A000BDE80840FFF7EABD00200CE003F00F032F
:1086B00006E00020FFF75CFE154B9B6EC3F303132F
:1086C000D84008BD0120BDE80840FFF751BE012099
:1086D000FFF74EFE0E4B1B6FC3F30113F0E70D487F
:1086E000FFF760FF072810D0082803D1BDE8084035
:1086F000FFF76ABD08484FF4B07102E0064840F247
:10870000B741FFF7D5FD002008BD044808BD00BFF4
:1087100000800C4004001800F4350100809FD50053
:1087200010B504280FD8DFE800F00906181503007B
:108730001020202313E04020802310E04FF48070AD
:108740004FF400730BE00C4840F2F671BDE81040A6
:10875000FFF7AEBD0120022301E004200823074CEF
:1087600029B1206222B1E26A1342FCD000E0236208
:10877000BDE8104000F02CBAF435010000800C4038
:1087800010B500F00F04012C03D055D3032C26D9CB
:1087900052E00239032909D8DFE801F00C0F020585
:1087A000022004460BE00320012408E0264840F2A2
:1087B000C65144E00020042401E0012003240121EB
:1087C0000A46FFF7ADFFFFF775FD204B5C6200F036
:1087D000FFF9FFF753FDBDE81040FFF783BD0139F6
:1087E000052917D8DFE801F01A030A16161101212E
:1087F00000200A46FFF794FF022310E00120014603
:108800000246FFF78DFF012309E0114B01221A6098
:10881000032304E00C484FF4C26110E000230B4A2C
:10882000022C916A0BBF21F0030121F00C010B43D4
:1088300041EA8303936210BD034840F27261BDE8D0
:108840001040FFF735BD00BFF435010000800C403B
:10885000080890432DE9F041DFF880800401D8F842
:1088600008C0069D079F089EA4441AB9D8F80C803A
:10887000444400E06446DCF80CC0BCF1000F01D0B9
:108880008CF8082057B1D4F808C0CCF3816CBCF147
:10889000030F1CBF06FA0CFC674427603DB1A768B4
:1088A000BF0F032F1CBF06FA07F7ED1965600125FE
:1088B00005FA00F0094D0BB1A86100E0E8610AB1CA
:1088C000686300E02863A36823F47F5323F0370331
:1088D0000B4343EA0616A660BDE8F08100200C4079
:1088E0001A4B1B4A41F20C0112682DE9F0415F5806
:1088F000174000D5FEE7D3F83880022607EA0805BE
:108900000024EDB1EB0718D50121A1400F4B114A0E
:108910009B68116003EB0413DB6873B1197AD3F819
:1089200000C081F001021A72BCF1000F05D00031C5
:10893000204618BF01215A68E0476D080134E0E77E
:10894000013E27EA0805DBD1BDE8F08100200C409C
:1089500000300C4008300C402DE9FF410728044648
:108960000F46164698460B9D04D9104840F2CD118B
:10897000FFF79EFCB5F5806F04D30C484FF4E77108
:10898000FFF796FC0A9B20460193CDF80080334602
:10899000029501213A46FFF75DFF012303FA04F433
:1089A000034B9C6204B0BDE8F08100BF0A360100B1
:1089B00000200C40072838B504460D4604D9154858
:1089C00040F2C521FFF774FC25B9124840F2C621D8
:1089D000FFF76EFC104BAA68996801EB0411CA609E
:1089E00029780122A24009B19A6300E0DA636A683B
:1089F00004F5886143F82120084B6A78234432B19A
:108A0000012202FA04F4044841F2080144509B0098
:108A10001A6038BD0A36010000200C406080E11069
:108A2000072870B505460E46144604D9114840F291
:108A30001231FFF73DFC24B90E4840F21331FFF725
:108A400037FC0D4B0EB19B6800E0DB682279E178C2
:108A5000920442EA8132217803EB0515A37860780D
:108A6000890741EA037141EA806141EA03631343E4
:108A7000AB6070BD0A36010000200C400F4B012096
:108A8000C3F880000E4BFF2200215960DA615A6260
:108A9000DA625A63DA63D86441F20C0209489950E9
:108AA00041F2080298500A4602F58861013200201E
:108AB000082A43F82100F7D1704700BF00E100E029
:108AC00000200C40FF00008010B5044620B9124879
:108AD00040F2EB31FFF7ECFB237923B10E4840F273
:108AE000EE31FFF7E5FB01210C48FFF71BFDFFF717
:108AF000C5FF0B4B0122C3F880211A60094B41F2DC
:108B00000C024FF00041995062689A60227852013D
:108B100042F001025A6010BD0A3601000013040041
:108B200000E100E000200C401A4B45F60E02D3F89D
:108B30008400C3F88420184A00F00100128802F46F
:108B4000AA71196202F47051B1F5805F06D0B1F5D7
:108B5000005F08D0B1F5006F10D109E0D96A0906AD
:108B6000FCD5032108E0D96A8905FCD5042103E07E
:108B7000D96A0907FCD50221064B5962D30702D4F2
:108B8000044B02221A6218B1024B0022C3F884205F
:108B9000704700BF00800C401C0A0020094B0A4AA5
:108BA000DB6A9BB21380094A116941F0040111612B
:108BB00030BF08B1FFF7B8BF5B0501D4FFF75EBB5C
:108BC000704700BF00800C401C0A002000ED00E050
:108BD000024BDA6A024B1A80704700BF00800C40DB
:108BE0001C0A00200528F8B505460C4616461F4607
:108BF00001D80F2903D919489621FFF759FB072CF3
:108C000017490CD8A0000F2383408540D1F80021DC
:108C100022EA030343EA0500C1F800010DE0A4F1D4
:108C2000080080000F2383408540D1F8042122EA08
:108C3000030343EA0500C1F804010A490123214462
:108C400003FA04F4064B89000E60C1F88070C3F883
:108C50001C419DF81830C1F80031F8BD36360100CE
:108C600000600040400883100528F8B505460C4612
:108C700016461F4601D80F2903D92248CB21FFF7FA
:108C800017FB76B101232422A34037B16A4302F1D6
:108C9000804202F5C042136103E002FB05F11A4A6B
:108CA000535024226A43072C02F1804202F5C0424D
:108CB0000AD8A3000F21994006FA03F3506820EA6E
:108CC00001010B4353600CE004F180410839890035
:108CD0000F238B4006FA01F1906820EA0303194341
:108CE00091606EB90122242302FA04F45D432FB18E
:108CF00005F1804505F5C0452C61F8BD024B5C517E
:108D0000F8BD00BF3636010014600040036CDB077D
:108D100002D4436C1942FCD17047000070B5044680
:108D20000D46164622B918484FF48471FFF7C0FA71
:108D30009DB9164B9C420AD003F580639C4208D033
:108D4000BDE8704010484FF49A71FFF7B1BA10486F
:108D500000E01048FFF76AFC05466D01B5FBF6F52B
:108D6000203DED0047F6F8739D4204D9064840F2D5
:108D70004111FFF79DFA47F6F8762E402046042170
:108D8000FFF7C4FFE66070BD4D36010000400840AB
:108D90004005140040151600164B70B59842044665
:108DA0000D4608D003F58063984204D012484FF472
:108DB000E671FFF77DFA20460221FFF7A7FF0A239D
:108DC0006360666C002EFCD10123236423682A7B38
:108DD00023F01C0313436A7B20461343AA7B696874
:108DE00013432360AA68FFF799FF2B78636026641A
:108DF00070BD00BF004008404D360100104B10B55B
:108E00009842044608D003F58063984204D00D4888
:108E100040F2F311FFF74CFA636C002BFCD10122F6
:108E20002264EA22626040F2F9722360E360236107
:108E30006361A3636263E3636365236410BD00BF82
:108E4000004008404D3601002DE9F04107460D462F
:108E5000984616461AB930488C21FFF729FA1DB9F1
:108E60002E48FFF7E3FB0546B8F1200F13D003D8D7
:108E7000B8F1000F07D028E0B8F1400F13D0B8F1D7
:108E8000600F1AD021E0B6EB151F24D92248B22179
:108E9000FFF70EFA1FE0B6EBD50F1ED91E48B7211B
:108EA000FFF706FA19E00624B5FBF4F39E4217D942
:108EB0001948BC21FFF7FCF912E0B6EB950F0ED96B
:108EC0001548C121FFF7F4F909E01348C721BDE8AF
:108ED000F041FFF7EDB9102402E0082400E004247B
:108EE0007443AD0005EB5405B5FBF4F4043C0C4BA6
:108EF000A4019C4203D90848D621FFF7D9F93A6862
:108F0000074B22F060023A603A68234048EA0202C6
:108F10003A607B61BDE8F081663601001081020095
:108F2000C0FF1F0070B506460D46144622B90F4813
:108F30004FF4DA71FFF7BCF91DB90D48FFF776FB66
:108F40000546631E03EB4505B5FBF4F4A401403C64
:108F5000084B24F0FF029A4204D9044840F2E3117E
:108F6000FFF7A6F9044B2340736170BD663601001C
:108F700010810200C0FF1F0000FF1F0038B50C4B1E
:108F8000044698420D460CD003F58063984208D001
:108F900003F58063984204D006484FF40071FFF750
:108FA00087F9EB4303F005035B00E360E56038BD40
:108FB00000C0004066360100124B10B598420446CE
:108FC0000CD003F58063984208D003F58063984283
:108FD00004D00D4840F22D31FFF76AF940F6AA633C
:108FE000E36041F2050200232360626041F6F972FA
:108FF000A3606361E364A264024A6365944208BFAC
:10900000236510BD00C000406636010038B5124B24
:10901000044698420D460CD003F58063984208D070
:1090200003F58063984204D00C4840F22621FFF7F4
:109030003FF92046FFF7C0FF2A8A6B7B2046134387
:10904000EA89696813436360AA682B7BFFF7FCFE1B
:109050002B78E36038BD00BF00C0004066360100D9
:1090600038B5194B044698420D460CD003F5806381
:10907000984208D003F58063984204D0134840F228
:109080006121FFF715F92046FFF796FF2B8AAA7B8F
:10909000216843F00103002A9BB20CBF00224FF469
:1090A00080620B43134323602B7B204643F48053A1
:1090B00063606968AA68FFF735FF6B7B0BB110230B
:1090C000E3602B78E36038BD00C0004066360100E5
:1090D00003695A06FCD5416303699B06FCD5C06948
:1090E000C0B27047F8B504461F4616462AB9144860
:1090F000DB21BDE8F840FFF7DBB8036823F44073D9
:109100000360036843EA0723036019B90D48FFF7BA
:109110008DFA01460C4BA1EB8601DD5D23686E43A1
:109120009B07B1FBF6F500D53DB1B5F5007F05D342
:109130000348F721FFF7BCF800E001252561F8BDE1
:1091400082360100108102007E3601000F4B70B59F
:10915000984205460C4604D00D4840F21D11FFF719
:10916000A7F800236B6362780A4B05F104762B6342
:1091700082F0010273015A602846237B6168A2686D
:10918000FFF7B0FF23787601336070BD00A0004088
:1091900082360100CFFF01000023036003614361B9
:1091A00083614363014B0363704700BFCFFF01003E
:1091B000F8B5A04B984226D09F484FF4B871FFF7FE
:1091C00077F8FC201DE0598041881A710288C80692
:1091D0004AD5120A02F0060242F0F0029549012037
:1091E00018704A6248601978944A092940F01F8132
:1091F00090480021416392F90100012808BF517095
:10920000587840B2F8BD8D4B98681E7859881A7905
:10921000884FBC6A3D4614F4C06F0CD0A505874842
:1092200059801A7101D5FD2203E0640540F1FC80EC
:10923000FE224270F8E0082E00F2F2800FF2040CD9
:109240005CF826F0C791000077920000BF92000002
:10925000DD9200000F930000339300008193000023
:10926000AB9300000394000002F0FE028F0748BF9A
:1092700042F00102B2E7260600F18480640601D4C0
:10928000012049E040253D6345886A4CEE0606D53D
:109290001A7102221A70027859806262A3E7AF073E
:1092A00040F181801A7100EBC20212895980012AB3
:1092B0004FF00701197096D10822626093E72606E5
:1092C00060D4640601D4022026E040243C63448834
:1092D00014F0020F14BF0326052699E75980418830
:1092E0001A710288C80643BF120A02F0060242F051
:1092F000F00202F0FE024F074FF0040119704D49D1
:1093000048BF42F00102012048604A626BE726062E
:1093100038D4640604D40420187059801A7162E7A6
:1093200040243C63448867073DD51A715980072261
:109330007BE000EBC20425898D4218D841880132B8
:1093400001F00404A4B2D2B214B1002103265FE7F5
:1093500011F0010106D05C801A7108221A700221F6
:10936000344A41E0012A7FF653AF5980F4E71A717D
:109370006268481C515C2F4A58805162062254E0B2
:1093800026060AD51A71802259802A63FF225A7054
:1093900008221A7002226A6025E7640601D40620BA
:1093A000BAE740243C63052632E707265980A10628
:1093B000224D1E701A717FF516AF00EBC2021189A3
:1093C0006C881C488C42C06903D25268661C6E804F
:1093D00010555888174A884208D3012904BF08212C
:1093E00051600821197002215160FCE60424012912
:1093F00054603FF4F8AE013988427FF4F4AE08219E
:10940000F2E708201A71E205187059807FF5EBAE7B
:10941000084A4FF480711163084A09211170E2E68D
:109420001A71FB2259805A7009221A70DBE601205A
:10943000E7E600BF00A0004082360100200A0020BD
:109440001E4B70B5984205460C461E4604D01C487B
:1094500040F2E921FEF72CFF24B9194840F2EA2135
:10946000FEF726FFB54226D1AB68DE0744BF2023B6
:109470006B606388980701D52289E2B1590701D54D
:10948000238AC3B10F4B002201211A711A705A802E
:109490009C605970094BC0225A609A6A074892062C
:1094A00048BFDA69084ABDE870401A634FF4FC62AD
:1094B0005A63FFF77DBE6FF0030070BD00A000404F
:1094C00082360100200A0020CFFF0100034B1A6AF8
:1094D000D20702D45A6A1042FCD1704700000840FB
:1094E000012838B504460D4602D811F07F4F03D04D
:1094F0000848A621FEF7DCFE14B1012C03D038BDCC
:109500000220054C01E0054C0420FFF7DFFF256039
:1095100038BD00BF98360100080008400C00084024
:1095200010B504460120FFF7D1FF4FF086431C60C1
:1095300010BD0000437810B504780BB144F002046C
:1095400083780BB144F004040120FFF7BFFF014B07
:109550001C6010BD0000084010B5044618B9094849
:109560003E21FEF7A5FE084B1A6902F03F02227069
:109570009A69DB6902F0F002C3F3031313436370CB
:1095800010BD00BFAE360100D0FF0FE0F7B50028D8
:1095900040F08F80484E3078830700F18B8003F0D5
:1095A00019FE04F00FF80A25FF20013D03F0DCFD51
:1095B00015F0FF05F8D12846294603F0C5FF01281C
:1095C000044601D0002460E04FF47A7004F01CF8E7
:1095D00008204FF4D57103F0B7FF012835D1FF20E3
:1095E00003F0C2FD01AF78550135042DF7D19DF888
:1095F0000630012BE6D19DF80730AA2BE2D104F00A
:109600000DF828B104F00AF801460028DAD107E085
:10961000A9204FF0804103F097FF0028EFD1F1E738
:109620003A2003F091FF0028CCD10446FF2003F03C
:109630009BFD38550134042CF8D19DF8043013F00B
:10964000400F0CBF04240C241FE02946A92003F07E
:109650007BFF01289ABF0224A925254603F0DEFFDF
:10966000014660B103F0DAFF0028ABD110204FF4BF
:10967000007103F069FF002818BF002405E02846A8
:1096800003F062FF0028E9D1ECE70C4B1C8003F0EB
:1096900089FD34B1337823F00103337003F0A2FF66
:1096A00005E003F0BDFD337843F0010333703078FB
:1096B00000E0012003B0F0BD08000020300A0020C7
:1096C00010B9024B1878704701207047080000203D
:1096D00038B50D461C461146002833D193B31B4BB9
:1096E0001B78DA0730D41A4B1B881B0758BF490276
:1096F000012C0DD1112003F027FFE8B928464FF4C3
:10970000007103F077FED0F1010438BF002413E0AC
:10971000122003F019FF78B928464FF4007103F0C6
:1097200069FE28B1013C14F0FF0405F50075F3D182
:109730000C20002103F008FF03F034FD201C18BFAB
:10974000012038BD042038BD032038BD08000020AA
:10975000300A002070B50D4616461C46002840D140
:10976000002B3ED0224B1B78D8073CD459073CD461
:10977000204B1B881A0758BF7602012C0DD11820E8
:10978000314603F0E1FE30BB2846FE2103F084FEA3
:10979000D0F1010438BF00241DE013F0060F03D000
:1097A0009720214603F0D0FE1920314603F0CCFE6D
:1097B00088B92846FC2103F06FFE28B1013C14F063
:1097C000FF0405F50075F4D10020FD2103F064FECF
:1097D000002808BF012403F0E5FC201C18BF01206D
:1097E00070BD042070BD032070BD022070BD00BF9D
:1097F00008000020300A0020F0B5154685B000288A
:1098000040F0E380734B1A78D20700F1E0800E2914
:1098100000F2D480DFE801F008134B4FD2D2D2D24D
:1098200010D29DA1A3AFBF0003F0C4FC08B901246E
:10983000C7E003F0B7FCC3E001221A70C0E00920C2
:10984000002103F081FE04460028F0D16846102173
:1098500003F0D0FD0028EAD09DF800309DF80820E4
:109860009B09012B9DF8093004D103EB022301333E
:109870009B021AE09DF807109DF80A00890001EB91
:1098800092129DF8061003F0030301F0030102EBAE
:1098900081229DF80510013201F00F0101EBD0117A
:1098A00001EB4303073B02FA03F32B6089E04FF41B
:1098B00000732B8084E0484E318801F0040189B2A6
:1098C000D9B18D20002103F03FFE0028AFD1FF2049
:1098D00003F04AFC6846102103F08CFD0028A6D056
:1098E0003024FF20013C03F03FFC14F0FF04F8D1CA
:1098F0009DF80A3010221B09D5E7092003F024FE49
:10990000002894D16846102103F074FD00288ED001
:1099100034889DF80A2004F00204A4B29DF80B30AC
:1099200064B19DF80D1002F03F02DB0903EB420326
:109930008909013301398B402B6041E003F00301B9
:109940005B0903EBC103C2F38402013302FB03335F
:10995000ABE7214B1B882B7032E0092000E00A2086
:10996000002103F0F1FD00287FF461AF28461021AB
:1099700003F040FD1DE03A20002103F0E5FD002842
:109980007FF455AF0446FF2003F0EEFB2855013469
:10999000042CF8D114E08D20002103F0D5FD00281F
:1099A0007FF445AFFF2003F0DFFB2846402103F0A2
:1099B00073FDD0F1010438BF002402E0042400E06C
:1099C000002403F0EFFB204602E0042000E0032027
:1099D00005B0F0BD08000020300A002010B50023BB
:1099E0009CB2A24203D0CC5CC4540133F8E710BD52
:1099F000036930B501F10902002B35D04369002419
:109A0000185D202808D0052804F1010408BFE520CE
:109A1000082C02F8010BF3D1187A20280DD010463B
:109A20002E2400F8044BDD1D013215F8014F202CC7
:109A300003D002F8014B8242F7D1D87A0872987F9E
:109A4000DC7F000440EA04601C7F20435C7F40EA26
:109A5000042008605C7E187E40EA04208880D87D5F
:109A60009B7D43EA0023CB800023137030BD2DE99A
:109A7000F041056B04468D420E4602D10020BDE840
:109A8000F081037913B9002EF8D01FE000F13408FB
:109A9000414640782A460123FFF75CFE10B10120C1
:109AA000BDE8F081226A636A207113449D42EAD2C4
:109AB000E778012FE7D9236A60781D4441462A469A
:109AC0000123013FFFF746FEFFB2F2E7607804F1A1
:109AD000340132460123FFF7FBFD0028DFD1266366
:109AE000BDE8F08110B504460A46407804F134011F
:109AF0000123FFF7EDFD80BB94F8323294F8332256
:109B000043EA0222174B12B29A4228D194F86C20F1
:109B100094F86D30120442EA036294F86A301A43F2
:109B200094F86B3042EA03220F4B22F07F429A42B4
:109B300016D094F8880094F88920000440EA026066
:109B400094F88620104394F8872040EA022020F001
:109B50007F40C01A18BF012010BD032010BD022095
:109B600010BD00BF55AAFFFF464154002DE9F0414A
:109B7000154602681378303B9BB2092B05D8547800
:109B80003A2C02D10232026001E0B64B1B78002B66
:109B900040F05681B44B1C680C60002C00F05381DF
:109BA000237873B16078FFF78BFDC60709D4002DC9
:109BB00000F04C8110F0040F0CBF00200A20BDE81B
:109BC000F081002020706070FFF7E0FCC10700F119
:109BD000408115B1420700F13F8120460021FFF787
:109BE00081FF012818D194F8F63113B90D20BDE892
:109BF000F08194F8FC6194F8FD31360446EA03667E
:109C000094F8FA3120461E4394F8FB3146EA0326C5
:109C10003146FFF767FF00E00026032800F01F81B0
:109C20000028E3D194F8402094F83F3043EA02231F
:109C3000B3F5007FDAD194F84B0094F84A3053EA38
:109C400000200DD194F85A0094F85B30000440EAEB
:109C5000036094F85830184394F8593040EA0320D0
:109C600094F8445020626B1E012BE570BED894F826
:109C70004110A1700029B9D04B1E0B42B6D194F807
:109C8000453094F8462043EA022213072281ADD1E1
:109C900094F8487094F8473053EA07230DD194F8AC
:109CA000563094F857701B0443EA076394F85470D5
:109CB0003B4394F8557043EA072394F8438094F8A3
:109CC000427057EA082891D005FB00FC08EB1217F8
:109CD0006744BB428AD3DB1BB3FBF1F3002B85D077
:109CE00040F6F5718B4206D94FF6F575AB428CBF45
:109CF0000325022500E001250233374406EB080165
:109D0000032DE361E762616213D1002A7FF46EAF35
:109D100094F8622094F86310120442EA016294F805
:109D200060109B000A4394F8611042EA0122A2628B
:109D300010E0002A3FF45AAF022D4FEA430218BF49
:109D4000D218614418BF03F00103A1620CBF13468F
:109D500003EB520303F2FF13B0EB532FFFF446AFB4
:109D60004FF0FF332361032D4FF00003E3605AD11E
:109D7000637194F8652094F86430607843EA0222B5
:109D80003244626104F134010123FFF7A1FC002891
:109D900049D194F8323294F8332243EA0222334B09
:109DA00012B29A423FD194F8362094F83730120418
:109DB00042EA036294F834301A4394F8353042EAA8
:109DC00003222B4B9A422ED194F81A2294F81B327C
:109DD000120442EA036294F818321A4394F81932D2
:109DE00042EA0322234B9A421DD194F8223294F87E
:109DF00023221B0443EA026394F82022134394F8BD
:109E0000212243EA0223E36094F81E3294F81F22D1
:109E10001B0443EA026394F81C22134394F81D22A6
:109E200043EA02232361144A00201388257001337A
:109E30009BB220711380E3802063A061BDE8F081B4
:109E40000B20BDE8F0810C20BDE8F0812846BDE87C
:109E5000F0810320BDE8F0810A20BDE8F0810120F7
:109E6000BDE8F081320A0020380A002055AAFFFF21
:109E70005252614172724161340A002008B568B1E2
:109E800003785BB1C3888B4208D14078FFF718FC98
:109E900010F0010F0CBF0020032008BD092008BDF1
:109EA00038B500210446FFF7E2FD0346002B50D1F0
:109EB0002278032A45D16279002A42D0236304F133
:109EC00034010025CD540133B3F5007FF9D155237A
:109ED00084F83232AA2384F83332522384F834309F
:109EE00084F83530612384F8363084F81B322369D6
:109EF000412284F8372084F81A22C3F3072284F819
:109F00001C3284F81D221A0C1B0E84F81F32E368E1
:109F100084F81E22C3F30722722084F8203284F8CA
:109F200021221A0C1B0E84F8180284F8190284F8F6
:109F3000222284F82332607862690123FFF70AFC49
:109F40006571002160780A46FFF756FC003018BFA3
:109F5000012038BDC3690239023B99423DBF827876
:109F6000C36A02FB0130002070470129F8B504469E
:109F70000D4661D9C36999425ED20378022B2AD07B
:109F8000032B3AD0012B54D18EB206EB5606416A10
:109F9000B6B201EB5621FFF76AFD002849D1C6F39E
:109FA0000803616A0136B6B22344204601EB56210C
:109FB00093F83470FFF75BFD00283AD1C6F308062A
:109FC000344494F83400EB0747EA00204CBF000902
:109FD000C0F30B00F8BD416A01EB1521FFF747FD07
:109FE00038BB6D0005F4FF7563192C4493F83430C9
:109FF00094F8350043EA0020F8BD416A01EBD51121
:10A00000FFF735FDA8B9AD0005F4FE75631993F8A7
:10A01000370093F8362034335B78000640EA02407C
:10A020002C4440EA032094F83430184320F0704068
:10A03000F8BD4FF0FF30F8BD0120F8BD70B5044603
:10A040000D46E1808168012901D1022070BD0368BD
:10A05000DA699142F9D271B91A78032A01D1996A61
:10A0600049B90022E2601A89AA42EED99B6A03EB41
:10A070001513236119E09E783601B5420ED320688E
:10A08000FFF773FF431C014618D00128DDD9236870
:10A09000DB699842D9D2AD1BADB2EEE7E160206832
:10A0A000FFF758FF00EB15102061236805F00F053E
:10A0B00003EB451334336361002070BD012070BD94
:10A0C0000129F8B504460D46164673D9C36999426D
:10A0D00070D20378022B3BD0032B4AD0012B65D1E1
:10A0E0008FB207EB5707416ABFB201EB5721FFF769
:10A0F000BEFC00285BD1C7F3080315F0010523441B
:10A10000F2B206D093F8341001F00F0141EA0212C6
:10A11000D2B20137616A83F83420BFB201232371C0
:10A12000204601EB5721FFF7A2FC00283FD1C7F3DF
:10A130000807274415B1C6F3071606E097F8343030
:10A14000C6F3032623F00F031E4387F834602EE086
:10A15000416A01EB1521FFF78AFC40BB6D0005F455
:10A16000FF75631983F83460C6F3072683F83560FA
:10A170001DE0416A01EBD511FFF779FCB8B9AD00DC
:10A1800005F4FE75631993F83720120602F0704249
:10A190001643C6F3072283F8346083F83520320C67
:10A1A000360E83F8362083F8376000E00220012362
:10A1B0002371F8BD0220F8BDF8B505460F4631B948
:10A1C000C6686EB1C3699E4228BF012609E0FFF749
:10A1D000CCFE01283BD9EB69984239D33E4600E0DA
:10A1E00001263446EB6901349C4204D3012E01D888
:10A1F0000020F8BD022428462146FFF7B6FE48B1EC
:10A20000411C02D14FF0FF30F8BD01281FD0B442ED
:10A21000E8D1EDE7284621466FF07042FFF750FF86
:10A2200098B947B92B69EC605A1C0CD0013B2B61E3
:10A2300001236B7107E0284639462246FFF740FFAD
:10A240000028EFD001E02046F8BD0128DAD0012037
:10A25000F8BD2DE9F843C68804460136B6B20F466C
:10A2600016B90420BDE8F8830369002BF9D016F075
:10A270000F085CD1C16801330361006819B9038913
:10A28000B342EED953E08278013A12EA16124ED167
:10A29000FFF76BFE0128054602D80220BDE8F883CF
:10A2A000421C02D10120BDE8F8832068C3699D42A9
:10A2B00037D3002FD5D0E168FFF77EFF0546002891
:10A2C0003ED00128E9D0431CECD020680021FFF7E4
:10A2D000CEFB0028E6D12368343300271F54013019
:10A2E000B0F5007FF9D1D4F8009029464846FFF731
:10A2F00031FEC9F830002368FAB2997891420DD93D
:10A3000001221A7120680021FFF7B1FB01370028F4
:10A31000C8D123681A6B01321A63ECE7196B8A1AE9
:10A320001A63E56020682946FFF714FE2061236860
:10A33000E68003EB4813343363610020BDE8F88303
:10A340000720BDE8F88300002DE9F0410B780446B2
:10A350002F2B0D4601D05C2B02D10135002301E0EB
:10A3600003689B69A3602B781F2B35D820460021FA
:10A37000FFF764FE00236361BDE8F08100228B5C7F
:10A38000501C2E2B85B23ED02F2B41D1202B0D44BB
:10A390008CBF20232423F37220460021FFF74EFEBA
:10A3A00030B920682169FFF762FB002800F0938034
:10A3B000A369DB7A002800F0A780042840F0C2805F
:10A3C00013F0200F03F0040300F0A3800022A2602A
:10A3D0006261002B40F09A802B7829462F2B05F1E3
:10A3E0000105F9D05C2BF7D0A66900232022F25496
:10A3F00001330B2BFAD10B782E2BBFD00020034654
:10A400000827024616E0022A62D0B3540246B6E795
:10A410005C2BBBD0202B5BD8B8E72F2B28D05C2B34
:10A4200026D02E2B0CD1082F52D192003846D2B212
:10A430000B272B465D1CCB5CADB2202BEDD815E075
:10A44000B84245D213F0800F06D0DFF8FCC0803B45
:10A450001CF8033042F00302DFF8F08018F801CF57
:10A46000BCF1000F1DD09C45F8D131E0042300E081
:10A47000002368B330780D44E52804BF0520307010
:10A48000082F04BF9200D2B202F00300012802F0AC
:10A490000C0208BF43F01003042A08BF43F008036E
:10A4A00079E7A3F1410CBCF1190F02D842F0020286
:10A4B00008E0A3F1610CBCF1190F03D8203B42F076
:10A4C0000102DBB200F1010C33541FFA8CF0B0E74B
:10A4D0000620BDE8F081626913789BB1D37A1E072C
:10A4E0000BD4A7690346D15C0133FE1816F8016C42
:10A4F0008E4202D10B2BF6D15AE720460021FFF7FE
:10A50000A8FE4DE7042053E7590708D50020BDE811
:10A51000F081002B14BF04200520BDE8F0816369A1
:10A52000DA7AD2060BD5597D1A7D42EA0122D97E0C
:10A530009B7E43EA012343EA0243A3604CE70520E4
:10A54000BDE8F081BDE8F081D6360100C6360100D5
:10A5500038B500210446FFF771FD054618BB206899
:10A560002169FFF784FA0546E8B963691B78E52B92
:10A5700005D023B120460121FFF76BFEEDE72068EF
:10A580002169FFF774FA054668B960692B46002215
:10A59000C2540133202BFAD10B22A169FFF71EFA16
:10A5A000236801221A71284638BD10B504230446D9
:10A5B000216991B12068FFF75AFAA8B963691A783E
:10A5C0008AB1E52A02D0DB7A1B070FD5204600218D
:10A5D000FFF73FFE40B90346EAE7184633B10022D1
:10A5E0002261184610BD04200346F8E710BD01297A
:10A5F00070B504460D4622D9C36999421FD2E3695A
:10A600009D4205D220462946FFF7AFFC064608B911
:10A61000002070BD012812D0411C0ED020462946D2
:10A620000022FFF74DFD58B923695A1C03D00133AE
:10A630002361012363713546E1E7012070BD0220EB
:10A6400070BD000038B50C4680B9094A136815463C
:10A6500003B1187014B10023237004E0607808215E
:10A660002246FFF7C9F82C60002038BD0B2038BD0A
:10A67000380A00202DE9F0418CB0002305460CA8D3
:10A6800040F82C1D2B60174602F01F0605A902F0AA
:10A690001E02FFF76BFA02AB0B9318B905A80199DC
:10A6A000FFF752FE0A9C10B9002C08BF062017F0D5
:10A6B0001C0F44D048B1042802D105A8FFF748FF79
:10A6C00046F008060A9C30B16DE0E37A13F0110FF2
:10A6D00068D17B0762D437073AD502F0A9FF227D03
:10A6E000677DC0F30723E17E42EA0727A27EA073BD
:10A6F000E373030C000E23746074002342EA01220A
:10A700000598E37223776377A377E377A376E376FD
:10A710002375637552EA07474FF00103037117D0A1
:10A720003946D0F83080FFF762FF00283BD105980A
:10A73000013FC7604146FFF79AF948B133E000286E
:10A7400031D1E37AD8062BD4B90701D5DA0729D459
:10A750003307059B48BF46F020061A6BAE71EA61CD
:10A760002C62227D617DE07E42EA0121A27E42EAE6
:10A77000002242EA01422A61A27FE17F120442EAFA
:10A780000162217F00200A43617F2B60DB8842EA5F
:10A790000122EA60A860A861AB8004E0082002E022
:10A7A000042000E007200CB0BDE8F0812DE9F84F4F
:10A7B000994600230446A9F800300F460068A18896
:10A7C0001546FFF75BFB002840F0BF80A379180611
:10A7D0005CD4990740F1B880E368DD4228BF0025CA
:10A7E00036E05FEA552800EB0A067AD09BF8023083
:10A7F0000AEB08029A42C4BFCAEB03081FFA88F8A2
:10A800009BF80100394632465FFA88F3FEF7A2FF53
:10A81000002876D1A369991B41450BD204F124008D
:10A8200007EB41214FF40072FFF7D8F8A37923F02A
:10A830004003A3714FEA4826B6B2A368AD1B334468
:10A84000A360B9F8003037443344A9F80030ADB202
:10A8500025B3A368C3F30802002A5AD1206890F8F0
:10A8600002A00AF1FF3A0AEA532A1AF0FF0A1ED19F
:10A870007BB9216921B9FFF79FFC0146206169B1CD
:10A880000129A37910D163F07F03A3710220BDE8F1
:10A89000F88F6169FFF790FC0146F0E7A368E26872
:10A8A00093424AD9E36048E04A1C2BD06161A37906
:10A8B0005B060CD5214651F8243BA2695878012348
:10A8C000FEF748FFA379E8B923F04003A371D4F859
:10A8D00000B061695846FFF73DFB002881D1A3799C
:10A8E000D1E7A369B34213D0A268E3689A420FD2BA
:10A8F0009BF8010004F1240132460123FEF7E8FE33
:10A9000030B1A37963F07F03A3710120BDE8F88F14
:10A91000A661A0683946C0F30800C0F50076B6B25B
:10A92000B54238BF2E46204424303246FFF756F851
:10A93000A37943F04003A3717FE7A379002043F09C
:10A940002003A371BDE8F88F0720BDE8F88F38B564
:10A950000446A1880068FFF791FA00284AD1A3793C
:10A9600003F0200202F0FF00002A43D05B060DD561
:10A97000214651F8243BA26958780123FEF7EAFEEC
:10A98000002836D1A37923F04003A3712068E16940
:10A99000FFF76DF870BB256AEB7A43F02003EB728A
:10A9A000E3682B77A3891B0A6B77E389AB77E37B9B
:10A9B000EB772369AB76238A1B0AEB76638A2B75C8
:10A9C000638A1B0A6B7502F033FEC0F30723A87578
:10A9D000EB75030C000E2B766876A379012223F029
:10A9E0002003A37123681A712068BDE83840FFF77F
:10A9F00057BA012038BD70B504460D460068A188DD
:10AA0000FFF73CFA002840F09380A279160600F187
:10AA10008C80E3689D4203D912F0020F08BF1D46E7
:10AA20000022A368A2600DB900254DE02068867859
:10AA300076026BB1013B691EB1FBF6F1B3FBF6F296
:10AA4000914205D372421340A360ED1A61690AE096
:10AA5000216939B9FFF7B0FB012801462DD001303B
:10AA600052D0216161610029DED0B5421AD9A379A3
:10AA700020689A0704D5FFF79FFB014618B910E03C
:10AA8000FFF773FA01464B1C3ED0012915D9236804
:10AA9000DB69994211D2A36861613344A360AD1BA5
:10AAA000E3E73546A3682B44A360C5F30803002BF6
:10AAB000BAD02068FFF74EFA20B9A37963F07F037C
:10AAC000A37132E000EB5525A368C3F3080313B369
:10AAD000A26995421FD0A37904F1240613F0400F18
:10AAE0000AD02368314658780123FEF733FEA37954
:10AAF00058B923F04003A3712368314658782A4699
:10AB00000123FEF7E5FD28B1A37963F07F03A3716C
:10AB1000012070BDA561A368E268934207D9E36094
:10AB2000A37943F02003A37101E0022070BD00204F
:10AB300070BD10B586B0044606A840F8141D00226A
:10AB40002146FFF713F810BB03ABA3612046019920
:10AB5000FFF7FAFBB0B963696BB1DA7AD20615D5A3
:10AB6000597D1A7D42EA0122D97E9B7E43EA012368
:10AB700043EA0243A36023682046DB880021A380C8
:10AB8000FFF75CFA042808BF052000E0052006B0A6
:10AB900010BD7FB504460E460068A188FFF76EF928
:10ABA0000546E8B926B920462946FFF747FA16E0D8
:10ABB00001ABA3612046FFF7F8FC042801D1256111
:10ABC00000E060B920463146FEF712FF2046002122
:10ABD000FFF73FFB042802D10023236100E0054674
:10ABE000284604B070BD2DE9F74F02AB43F8040DC1
:10ABF00088461646114618460022FEF7B7FF04465F
:10AC0000002861D13368DF691A69B91E8A4202D807
:10AC1000C8F8002058E093F80090B9F1010F11D165
:10AC20000227054630683946FFF79FF9431C3CD0A0
:10AC300001283CD000B9013533680137DB699F42F8
:10AC4000F0D337E0596A02460346054652B93068E8
:10AC500001F1010AFEF70BFF58BB3368514634334C
:10AC60004FF40072B9F1020F587893F800C006D182
:10AC70005CEA002C08BF01350233023A11E093F878
:10AC800002A093F803B04FEA0A4A4AEA0B6A4AEA7A
:10AC90000C0C4CEA002020F0704000B90135043360
:10ACA000043A013F92B2D1D104E0012402E002242F
:10ACB00000E004463368B9F1030F08BF01221D61AB
:10ACC00008BF5A71C8F80050204603B0BDE8F08FA5
:10ACD00008B502200549064A01F018FCBDE8084005
:10ACE000002105200A4601F045BC00BF563701008F
:10ACF000CC270020AD4B73B51B681B0E10D1AC4B9D
:10AD00001A6822F070021A60A3F57F532C3B1A6870
:10AD100022F060421A601A6862F060621A6001E014
:10AD2000032B0BD8A34B1A6822F4FC521A60A24AD8
:10AD300000231360536093611362936301A8FEF7CD
:10AD40000BFC9DF80430012B0FD19DF805302BB979
:10AD5000994B1A6842F002021A6001E0012B04D8F4
:10AD6000964B1A6842F001021A60954B1A68954B8F
:10AD70009A4220D8914B1A6842F490421A60924A43
:10AD8000106811681568146805F4FE4204F07F0429
:10AD9000224301F07F0142EA0141C0F306208B4AC1
:10ADA00041EA006111608A4A11688A4A11601A6892
:10ADB00022F490421A6001210A460020FDF7B0FCFF
:10ADC00085480221FDF7DCFC84480221FDF7D8FC10
:10ADD00083480121FDF7A6FB81480121FDF7F0FA28
:10ADE00080480121FDF79EFB7F480121FDF79AFB7A
:10ADF00001217E48FDF796FB4FF4165000F0B8F99C
:10AE000000F030F97A4800F013FA7A4800F010FAAE
:10AE1000794800F00DFA0020022104220123FDF7F9
:10AE200023FF0020052104220123FDF71DFF01F06F
:10AE300079FF70497148A1F11A02A1F10A0301F0EA
:10AE400089FF6F4800F0BEFF01F016FC01F070F8BA
:10AE500001F00EF802F086F96A4800F0DBFE00F01F
:10AE600019FC694801F0FEF90220684900F07EFBF8
:10AE7000604A6749A2F11A03032000F077FB4FF400
:10AE80007A6000F055FD634B00241C6002F036FC34
:10AE900001F0DAFB00F002FF204602F055FD01F060
:10AEA000F9F801F057FA02F0F3F9002865D05A4892
:10AEB0005A4902F083F80446002849D00220584934
:10AEC00000F054FB0320574900F050FB00F0DEFE79
:10AED00002F05CFC01F0B6F801F006FC524800F00C
:10AEE000A7F903240526514D01232B60642000F0AF
:10AEF0001FFD00232B60642000F01AFD013EF2D1FB
:10AF00004FF4487000F014FD013CEBD101232B609D
:10AF10000026C4F1C8039E4203DA00F03FFD01366B
:10AF2000F7E700262E60A64203DA00F037FD01366F
:10AF3000F9E70134C82CE9D1BFF34F8F3C4A3D4BB0
:10AF4000D16801F4E0610B43D360BFF34F8FFEE79C
:10AF500039483A4901F028FF05203949224601F0D5
:10AF600009FB01F06DFF374B37485A6C37491B6CB2
:10AF700001F0F0FE022002F0E7FC02F0ADFD01F06E
:10AF8000E3FF334B1A7872B9324B1B889BB233B153
:10AF9000274B1A6922F004021A6130BF7FE70120B3
:10AFA000FDF7FCFD7BE700221A7078E7FC81E00FDB
:10AFB0000CA00C4020600C4040800C4044800C40B1
:10AFC000F081E00FFFB98A4CB481E00F34200040DB
:10AFD000C881E00F2C400040020006000300120070
:10AFE00030040800002304001081020000C20200A7
:10AFF0005D370100823F01006C37010075370100A9
:10B000003438010014380100383801008737010056
:10B010009737010094010C429E370100A0370100D0
:10B02000A637010074370100B437010088010C42D3
:10B0300000ED00E00400FA05D5370100DE3701001D
:10B04000D1AC0000B081E00FEA3701000638010002
:10B050000027002000250020014B1860704700BF2A
:10B0600088010C4210B502200A2104220023FDF7BA
:10B07000FBFDBDE8104002200B2104220023FDF758
:10B08000F3BD0000034B186818B10138186000B90F
:10B0900062B670472C0A002013B572B6224B1A68AC
:10B0A000541C224C1CBF01321A60237823B102B019
:10B0B000BDE81040FFF7E6BF01232370FFF7E2FF72
:10B0C0001B4B1C4A1988138889B2CB1A9BB20BB947
:10B0D000237026E0180405D513884FF48061C3F56A
:10B0E00080639BB21088144A184480B21080108884
:10B0F00080B2B0F5806F04D31088A0F5806080B274
:10B1000010800E4A012011440D4A1BB211610D4AF4
:10B11000013B106000220193009201461346FDF7A7
:10B120001BFC02B010BD00BF2C0A00203C0A00200E
:10B13000400E0020420E00203E0E00203C0A00205F
:10B140000026002034000843054A00231360054A06
:10B150001188054A89B21180044A1370FFF79CBF19
:10B16000340008433E0E0020420E00203C0A00201E
:10B1700038B5012105461E48FDF7D4F91D4C1E487F
:10B180000121FDF7CFF901211C48FDF7CBF920463D
:10B19000FDF734FE1A4920468D60FDF7FDFD0225BE
:10B1A00004210A46656503200123FDF75DFD154B6B
:10B1B000154A0024DA601C611448FDF785FC012063
:10B1C0001349FDF7F7FB0120124A0146FDF728FC61
:10B1D000114A124B5A61124A41F20C03D550114BDD
:10B1E00001221A60104B1C80104B1C8038BD00BF20
:10B1F000001304000040084000C202004005140093
:10B20000140000200427002049B100000C00002099
:10B2100024000020300000202840084000260020A4
:10B2200000200C4000E100E0420E0020400E002013
:10B2300030B500210278002A2ED0194B194C1D88F8
:10B2400024882D1BADB2ACB214F4004F1CBF05F521
:10B250008064A4B224B240F2FE35AC421CDC124C35
:10B260002578124C45B10A2A06D129B91A880D2130
:10B2700092B2A154012104E01988013089B26254CC
:10B2800000211A88013292B2B2F5806F1A80D1D3B0
:10B29000034B00221A80CDE7BDE83040FFF7FCBE2B
:10B2A000400E0020420E0020350000203D0A002004
:10B2B0002DE9F0412024DFF844804FF01133C8F825
:10B2C00098300C4F0C4B012500261D605E603D60E0
:10B2D00000F064FBD8F8AC303E601B0406D500F0EB
:10B2E0005DFB013CE7D12846BDE8F0813046BDE872
:10B2F000F08100BF0C180C4210180C420060004096
:10B3000038B50546FFF7D4FF044680B9084B4FF027
:10B310004432C3F89820074A2D0210605060C3F8E9
:10B320009C50054D01232B6000F038FB2C6038BD8C
:10B330000060004010180C420C180C4210B505209B
:10B34000032104220023FDF78FFC04210A46052077
:10B350000023FDF789FC0520014604220023FDF7A8
:10B3600083FC1B4B4FF47F420821C3F8A420032029
:10B3700004220123FDF778FC642000F0D9FA154C73
:10B380003920FFF7BDFF1420FFF7BAFF2068001136
:10B3900040F05400C0B2FFF7B3FF6D20FFF7B0FFDD
:10B3A000206800F00F0040F07000FFF7A9FF382080
:10B3B000FFF7A6FF0C20FFF7A3FF0120FFF7A0FF78
:10B3C0000620FFF79DFF044B01221A7010BD00BF3D
:10B3D0000060004038000020440E002010B50446F4
:10B3E00018B90548A921FCF763FF044B1C60BDE8B0
:10B3F0001040FFF7A3BF00BFE8380100480E00204F
:10B40000084A00231370084A4FF044311360074A7A
:10B41000C2F8981006490B604B60C2F89C30054A90
:10B4200013607047440E0020200F0C420060004063
:10B4300010180C420C180C4238B50D4B05461B7801
:10B44000ABB1FFF735FF044688B90A4A4FF04433E1
:10B45000C2F89830084B094918602D0201230B608F
:10B46000C2F89C50064D2B6000F098FA2C6038BD55
:10B47000440E00200060004010180C4214180C42CA
:10B480000C180C4210B5441E14F8010F10B1FFF750
:10B49000D3FFF9E710BD000038B50C4B04461B780C
:10B4A0000D468BB10F2801D8012904D908484FF463
:10B4B000CD71FCF7FDFE04EB851464F07F00C0B293
:10B4C000BDE83840FFF71CBF38BD00BF440E002068
:10B4D000E838010070B5224B8AB01B7804460D464F
:10B4E0001646002B3AD0072803D91E484FF4A07106
:10B4F00007E0084603F0ACFA1E2805D9194840F2C7
:10B500004511FCF7D5FE29E02946174D324668461D
:10B5100004F05CFD2B6804EB44041A19185D5178A3
:10B52000FFF7BAFF2B6868461C4403F091FAA47831
:10B53000A04204DD0AAB0022234403F8282CA042D9
:10B5400004DA20230DF800300130F8E70AAB1C4480
:10B550006846002304F8283CFFF794FF0AB070BD4A
:10B56000440E0020E8380100480E00200EB403B558
:10B5700003AA52F8041B0192FFF7ACFF02B05DF87A
:10B5800004EB03B0704700001049114A0346002045
:10B59000126830B508600F490C680F49086800FB55
:10B5A00004200E4A11680E4A21B161431588B1FB8F
:10B5B000F5F108440B4912884968B1FBF2F21044D6
:10B5C000024A0121116003B1186030BD80030043BD
:10B5D000540E0020500E0020580E00205C0E00205B
:10B5E0004C0E002000000840002208B5026202F064
:10B5F0005FFC014B186008BD540E0020426A094BE5
:10B6000000211A80084B92B2196008494FF08073EC
:10B6100093FBF2F30B6053430549C3F180730B6056
:10B62000FFF7E2BF4C0E0020500E0020580E002005
:10B630005C0E0020014B1860704700BF540E0020C4
:10B64000024B186801301860704700BF500E002090
:10B65000014B1860704700BF500E0020014B186866
:10B66000704700BF500E002072B6044B1A68511C80
:10B670001CBF01321A601868704700BF2C0A0020F6
:10B68000034B186818B10138186000B962B67047EA
:10B690002C0A002030B5164D8DB002AC0FCD0FC472
:10B6A0000FCD0FC495E803000E2384E80300079331
:10B6B00002A84FF400430B93FFF7A0FF00230CA850
:10B6C00000F82C3D8DF805308DF80630FDF732FF7F
:10B6D000084B0120DA6942F00302DA61FDF720FF2E
:10B6E000054B4FF08072C3F880211A600DB030BD59
:10B6F000043901000000084000E100E0092838B5E5
:10B7000005460C4600D821B9044840F22D11FCF73B
:10B71000CFFD034B03EBC5056C6038BD2C39010030
:10B720006C0E0020092870B504460D46164606D852
:10B730004B1CDBB2182B02D8D3B23B2B04D90948DF
:10B740004FF4A971FCF7B4FD074B002213F8341035
:10B7500003F8342003EBC4025570C9B2967003F8A5
:10B76000341070BD2C3901006C0E0020092870B512
:10B7700005460C46164601D801B122B9064840F2EA
:10B780007511FCF795FD054B03EBC5056B78237030
:10B79000AB78337070BD00BF2C3901006C0E0020F7
:10B7A000092838B5044604D9094840F2A311FCF72A
:10B7B0007FFD084B03EBC40252681D4622B90448C2
:10B7C0004FF4D371FCF774FD012305F8343038BD14
:10B7D0002C3901006C0E002070B5054620B91448C4
:10B7E0004FF4ED71FCF764FD0023124E124C3268E9
:10B7F000934209DC04EBC302516819B944F83310D1
:10B80000556012E00133F0E73368082B04DD084887
:10B810004FF4F571FCF74CFD33680022013344F816
:10B82000332004EBC30465603360184670BD00BF6D
:10B830002C390100600E0020BC0E002070B5041EE3
:10B840000D4604DB0B4B1B689C4200DC21B90A4807
:10B850004FF40871FCF72CFD084B03EBC40252684F
:10B860001E4622B9044840F22321FCF721FD46F888
:10B87000345070BD600E00202C390100BC0E002039
:10B8800010B5041E03DB074B1B689C4204DD064811
:10B8900040F23921FCF70CFD044B002243F8342020
:10B8A00010BD00BF600E00202C390100BC0E00202E
:10B8B00010B5044620B9044840F24D21FCF7F8FCCD
:10B8C000024B1C6010BD00BF2C390100640E00202B
:10B8D00038B5124B421E9A42044604D9104840F231
:10B8E0006521FCF7E5FC0F4B1B6823B90C484FF4AE
:10B8F0001A71FCF7DDFC0C4D4FF47A726B68E103B2
:10B90000B1FBF2F11944012021F07F41FDF7E8FD80
:10B910000423AB61054B01221A6038BDFEFF010014
:10B920002C390100640E0020000008408803004309
:10B93000F8B5174B421E9A42044604D9154840F206
:10B940009921FCF7B5FC144EFFF78EFE7768FFF7E0
:10B9500085FEE4030546FFF793FE4FF47A73B4FBCC
:10B96000F3F43C4424F07F44BC4208D90A4B5B68A2
:10B97000A3420BD2FFF772FEA842F7D0F8BDFFF743
:10B980006DFEA842FBD07368A342FCD3F8BD00BF94
:10B99000FEFF01002C39010000000840054B5A68E9
:10B9A00059689142FCD0034A526859689142FCD0D0
:10B9B000704700BF0000084010B5044620B9044895
:10B9C0004FF43971FCF774FC024B1C6010BD00BFD2
:10B9D0002C390100680E002037B5A0B1FFF744FEF6
:10B9E0000020FFF7D1FD02AB43F8040D184602F02A
:10B9F000F9F8084C05460FCD0FC40FCD0FC42B68C6
:10BA00002360FFF73DFE044B1B6803B1984703B06A
:10BA100030BD00BF68270020680E0020F8B5344C08
:10BA20002369E5691D40E90703D5FFF709FE0123F6
:10BA3000A361AA0702D46B0758D54DE0A168002086
:10BA400001F5004121F07F41FDF74AFD0223A3618A
:10BA50000120FFF7C1FF0024264B1B689C4212DC2B
:10BA6000254B53F8342062B153F83420013A43F89F
:10BA7000342032B903EBC4035A6812B15B68204624
:10BA800098470134E8E71D491D4B4A6893F90000C7
:10BA90000E469042CFD01A7000241A4911F8343063
:10BAA000B3B1E2008B189F7870687FB287420FD1E4
:10BAB000587840B2013005D05878104B40B29B689E
:10BAC000984205D18B185A6812B15B682046984796
:10BAD00001340A2CE1D1AEE70B4B00221A60044B73
:10BAE00004229A61094B1B6803B19847F8BD00BF57
:10BAF00000000840600E0020BC0E002068270020D7
:10BB00003C0000206C0E002088030043640E0020DF
:10BB10002DE9F0410E46044600B121B9134840F228
:10BB20004931FCF7C5FB124F124DFFF79DFD0FCDBC
:10BB3000D7F80480D7F808C00FC40FCD0FC42B6806
:10BB400023603B699B0702D540F2E73308E0CCEB6A
:10BB5000080CCCF30E0C4FF47A7303FB0CF3DB0BE5
:10BB60003360BDE8F041FFF78BBD00BF2C39010009
:10BB70000000084068270020F7B50E46044620B9AB
:10BB80001F4840F27631FCF793FB002323622046E6
:10BB900002F08EF91B4B01901A6872B9186001A867
:10BBA00002F020F8184C05460FCD0FC40FCD0FC47E
:10BBB0002B681648236001F0CDF8154C0020E7698A
:10BBC000E0616568FDF7ACFC636A13F0060FFBD11A
:10BBD0001EB90F4B9B685B1B01E04FF400430C4CFC
:10BBE000A360E3685D1BE5600198FFF723FD00207B
:10BBF000FFF72EFD0120FDF793FCE76103B0F0BDD8
:10BC00002C3901008C2700206827002044390100CE
:10BC10000000084010B5044618B917485D21FCF72C
:10BC200047FB164B00221C60154B4FF6FF71C3F803
:10BC30001021C3F80821C3F80C21C3F81C11114BC3
:10BC400008341A60083434F8102C196812B10A4309
:10BC50001A60F7E70A4AC2F808111B68C2F80C31EB
:10BC6000094B0222C3F880211A604FF40072C3F816
:10BC700080211A6010BD00BF61390100100F002043
:10BC8000006000400C0F002000E100E0024B0022A9
:10BC9000C3F81021704700BF00600040044B4FF60E
:10BCA000FF72C3F81C21034A1268C3F810217047C1
:10BCB000006000400C0F00200F2810B5044603D987
:10BCC0000448AB21FCF7F4FA034B002223449B0009
:10BCD0001A6010BD61390100800883100F2810B56B
:10BCE000044603D90748BF21FCF7E2FA012202FA11
:10BCF00004F1054BC3F81C11044B23449B001A604C
:10BD000010BD00BF61390100006000408008831051
:10BD1000254B264A2DE9F047D3F80490D2F8143188
:10BD2000D2F8102112EA03083CD0214B1C6808EA23
:10BD30000404002C33D0B4FA84F2D2B2C2F11F064C
:10BD40000127B740072E24EA0704184B05DCD3F877
:10BD50000021B30022FA03F305E0D3F80431C2F165
:10BD600017029200D34003F0070324225A43114BD9
:10BD70009B581F42104B0CBF4FF0000A4FF0010AB6
:10BD80001D68083535F8083C002BD2D03B42F8D06E
:10BD900055F8043C304651464A469847F1E7034B74
:10BDA000C3F81C81BDE8F087000008400060004037
:10BDB0000C0F00201C600040100F0020FFF7A8BFF0
:10BDC000FFF7A6BF13B5044618B916485F21FCF764
:10BDD0006FFA23681BB913486021FCF769FA124B0C
:10BDE000124801211C60FCF79DFB00200024034643
:10BDF00003210122FCF738FF204622462346009407
:10BE00000321FCF7EFFE2046234604210122FCF724
:10BE10002BFF00942046042122462346FCF7E2FE35
:10BE200002B010BD75390100180F002000C20200D9
:10BE3000032808B502D0042803D008BD012002461B
:10BE400001E003200222084B31B119788A420AD15D
:10BE50000130C0B2002201E0197821B91A70034BF9
:10BE60001B681B68984708BD140F0020180F00209E
:10BE700013B5104801210024FCF754FB03200621D0
:10BE800001220023FCF7F0FE224623460094032003
:10BE90000621FCF7A7FE2346032007210122FCF719
:10BEA000E3FE00940320072122462346FCF79AFE76
:10BEB00002B010BD00C2020070B5124C81F0010248
:10BEC000630143F82020064604200D4600F088FB5D
:10BED0000D4B0E4A062E14BF49214F210C48002D50
:10BEE00008BF1A46A4F1887400F034FF236813B128
:10BEF00000F032F801E000F03FF8064B01221A7022
:10BF000070BD00BF90271021B4390100C73901006E
:10BF10008739010000270020034B00221A70034BD1
:10BF200001221A70704700BF2D0F0020002700204B
:10BF3000064B10B50122064C1A702368013303D159
:10BF40000448FFF749FC206010BD00BF1D0F002012
:10BF50004000002019BF0000054B01221A70054B5C
:10BF60001A68013202D01868FFF78ABC704700BF18
:10BF70002D0F002040000020064B01221A70064BB6
:10BF80001A68013204D018684FF4B471FFF756BC38
:10BF9000704700BF1D0F002040000020F8B5224B65
:10BFA00001245B011C6021462048FCF7BBFA2346B4
:10BFB000022000210422FCF757FE224621460220DF
:10BFC0000023FCF751FE1A491A4D4FF416538B60AB
:10BFD000052300264FF480574B7328464FF4007317
:10BFE0000E704E600E73CB810F82FDF70FF841F695
:10BFF000FF73AB64EB6C284643F00403EB640E4B19
:10C000002146C3F880711F606C65FCF7B7FF3046AE
:10C01000234606210422FCF727FE084B08481E7021
:10C02000BDE8F84000F096BE002510210012020085
:10C030004400002000C4004000E100E01E0F00208A
:10C04000A43901000E4B10B500241C6021460D4898
:10C05000FCF768FA2146224623460220FCF704FE3C
:10C060002346022022460121FCF7FEFD064B07482D
:10C070005B011C60064B1C70BDE8104000F06ABEFE
:10C0800098010C420012020000251021B73901006E
:10C090001E0F002038B5094B094C1B7803F0FF0533
:10C0A00033B123784BB9FFF779FF0123237038BDF3
:10C0B000237813B1FFF7C6FF257038BD2D0F002080
:10C0C0001C0F0020F0B53F4B8DB01A69120677D5D2
:10C0D0003D4ADD691068137901908DF8083003AC92
:10C0E000531D02F1150618685968224603C2083329
:10C0F000B3421446F7D1354C354A2378D5542378CA
:10C100000D2B58D8DFE803F0070A0A0A0A17171799
:10C110001717171717212F4B002119702178237833
:10C120000CAE3344515C13F82C3C994203D0274B9E
:10C1300000221A7041E0274B2178515C1A784A405E
:10C140001A7023780133DBB236E0224B517B1B7827
:10C15000994230D10023D118097B6FF00100584378
:10C160000CAF07EB111601F00F0116F8246C3944DF
:10C1700007AD11F8241C013B465513F1080F284464
:10C180004170E8D100238DF82C30134B1A781E46ED
:10C1900022B92846114902F0DFFA60B1002329468E
:10C1A0000E48337002F0F6FB072000F019FA0C4835
:10C1B0000A4900F0CFFD00232370024B04229A6449
:10C1C0000DB0F0BD00C400408F3901001E0F0020EB
:10C1D0001F0F00202E0F00201D0F0020942700208D
:10C1E000CB390100044B1B7813B1044B00221A8099
:10C1F000034B01221A7070473E0F00203C0F0020B5
:10C200000027002008B5064B186818B1054B01221D
:10C210001A7001E0FFF7E6FF034B01221A7008BD18
:10C22000340F0020380F002000270020034B1B781C
:10C230001BB1034B01225B019A6170472F0F002055
:10C240003A0F1021044B00221A70044A01235201B4
:10C25000D361034A13707047942700203A0F1021CE
:10C260000027002038B5134C05462368013303D15D
:10C270001148FFF7B1FA2060104C2368013303D155
:10C280000F48FFF7A9FA20600E4C2368013303D151
:10C290000D48FFF7A1FA20600C48FFF78DFB0C4A10
:10C2A000012313800B4A28461370BDE83840FFF77E
:10C2B00095B800BF60000020E5C100005C000020D0
:10C2C00005C200005800002045C200002DC2000039
:10C2D0003C0F00202F0F0020013808B5032830D86C
:10C2E000DFE800F002190612164B30221A801CE01B
:10C2F000144BC0221A80144B1A68013215D01868EA
:10C300000521FFF79BFA10E00F4B1A68013202D0AB
:10C310001868FFF7B5FA0D4B1A68013211D018688A
:10C320001421BDE80840FFF789BA084B1A680132AA
:10C3300002D01868FFF7A4FA024B1A88044B92B295
:10C340001A8008BD3C0F002058000020600000202B
:10C350003A0F0020F0B54C4A85B0137863B14B49D1
:10C3600000200B68107023B1494A08601068984794
:10C3700002E01846FFF736FF464B474C1D881F4624
:10C38000ADB22378002D79D01BB9FEF7D7FF01237A
:10C390002370424E33883A8892B21A4272D006F124
:10C3A00088763F4F76017F01344600252368E8B246
:10C3B000002B5DD0BB1B1B59002B59D000232360E1
:10C3C000072855D8DFE800F004045454061B3F50FA
:10C3D00034494BE03449DFF8F8E00A68334B096828
:10C3E00012F0400F0CBF72461A4611F0800F4FF04A
:10C3F00004002F4908BF7346FFF7B8F838E02D4B0B
:10C400001A8812B2002A02DA05202B492EE0B3F86E
:10C4100000E02A4A1B8811881BB24FF47A7293FB02
:10C42000F2F002FB10330FFA8EFE89B29EFBF2F29D
:10C430001BB24FF0640E00910520214993FBFEF3DF
:10C44000FFF794F814E01F4A0620D16813690091A1
:10C450009168013301915168029111680391526909
:10C460001949FFF783F803E018490720FFF77EF822
:10C470000135082D04F1040498D103E013B1FEF74F
:10C48000BFFF257005B0F0BD380F0020340F00202D
:10C49000300F00203C0F00202F0F00203A0F00200B
:10C4A0003C0F10217437010090270020DB39010078
:10C4B000E139010070000020F2390100DC27002082
:10C4C000033A010068270020133A01009427002056
:10C4D000DE390100094B1A7872B901221A70084A34
:10C4E00042231380074A1380074B1A68013203D096
:10C4F00018681E21FFF7A2B9704700BF3E0F002049
:10C500003A0F00203C0F0020600000200EB4431EB4
:10C51000012B17B505D9134840F28111FBF7C8FE6E
:10C520001BE0114A012814BF0324022401235201F5
:10C5300042F824300D4A520142F82430FFF70AFF36
:10C5400006AA204605990192FEF7C4FF084B1A6817
:10C55000013202D01868FFF793F903B0BDE810402C
:10C5600003B070472F3A01003C0F10213A0F102101
:10C5700060000020144B2DE9F0419046134D00223D
:10C580001A702A68044601320E461F4602D02868F7
:10C59000FFF776F90E4B1B789BB10E4B1E600E4BCE
:10C5A000C3F800804CB12B6801330AD0074B2146F9
:10C5B0001868BDE8F041FFF741B9084A01233B7014
:10C5C0001370BDE8F08100BF380F00205C00002030
:10C5D0002F0F0020340F0020300F002000270020F4
:10C5E000034A0123520142F82030024A1370704777
:10C5F0003A0F10210027002038B50F4B04461A7857
:10C600001D46904216D004280ED8DFE800F0030340
:10C6100012120A0001280CBF00460020FEF71CFD84
:10C6200007E0FFF757FF04E0044840F2AF31FBF7A3
:10C630003FFE2C7038BD00BF3F0F0020443A010080
:10C640000120FFF7D9BF000010B5084800F082FBB9
:10C65000074B0220C3F88000064B01241C70FFF733
:10C660003DFB2046BDE81040FFF7C6BF573A01002A
:10C67000006000406500002013B517480121FBF75A
:10C6800051FF01210B4603200422FCF7EDFA0320A1
:10C69000022101220023FCF7E7FA104C0022134686
:10C6A000009203200221FCF79DFA2368013303D195
:10C6B0000B48FFF791F8206000200A49FFF71EF8A9
:10C6C000002001213722FFF72DF8002002B0BDE83D
:10C6D0001040FFF765B800BF00C2020068000020EC
:10C6E00041C6000049C6000008B50C4B1A6801326B
:10C6F00002D01868FFF7C4F80220FFF7DDFA084BF4
:10C700000222DA670020FEF7A7FC0020FFF774FF83
:10C71000BDE80840034800F01DBB00BF68000020D2
:10C7200000600040663A01002DE9F04FAC4B17461F
:10C730001A7891B00C469946002A00F0E4801B78E4
:10C74000A84E012B04D10220FFF756FFFF233370C0
:10C75000A54B1A68013203D018680521FFF76EF85F
:10C76000002C00F0FD800120FEF776FC96F90030E9
:10C770003A2B40F0CE80DFF8A8B207AC5D460FCD73
:10C780000FC40FCD0FC42B6807A8236000230F939D
:10C7900001F08EFB954BDBF8202093F800A05D465E
:10C7A000002A18BF8AF0010A914A9846127852B1BD
:10C7B000BAF1000F07D019788E4A40F64C63002971
:10C7C00018BF134600E03C238B4A8C4C1168106064
:10C7D0000B44984208BF2378EA6806BF0133DBB2F6
:10C7E0000123237021782B690092AA6801330192FA
:10C7F0006A68834802922A68DFF800B203926A6985
:10C8000000F0A8FA2378012B40F281809BF80030D9
:10C810007C4CFA2B84BFFA238BF80030DFF800E25F
:10C820002B6A98F800C013F1000BBEE80F000FC48C
:10C83000BEE80F000FC4DEF80030204618BF4FF0EE
:10C84000010B5FFA8CFC40F82039012188F800B018
:10C85000CDF814C0FFF790F90020FFF7BDF86A4C3F
:10C86000A9686A682B68694898F80050002D18BFBD
:10C8700020460090664800F06DFADDF814C0DC45F3
:10C880002ED05A4B1A781D4622B1624800F062FA47
:10C89000002410E06048F9E7172AC8BF00238DF88C
:10C8A0001A3020469DF91A109DF91B200134FEF71D
:10C8B00039FF0A2C14D00DF11B0220460DF11A018C
:10C8C000FEF754FF2A789DF81A30002A0CBFFF2289
:10C8D00001221344DBB25AB2002ADDDA1723DEE765
:10C8E0004E4B434C1A68D71B1F60BAF1000F01D0A2
:10C8F000002323700420FFF77FFE23781BB1484BF1
:10C900005B68312B02DCFFF7EFFE1AE10027FF2303
:10C9100033703378414C5AB201321CD1414B1A6802
:10C9200041F65003A2F21F529A4217D8236843F2ED
:10C930003132FB1A23F07F43A3F56643673B9342F2
:10C940000CD899F80030042B02D00320FFF754FED6
:10C950000023337002E0234A013313702760F0E0B4
:10C960002046FEF779FB2D4B1B68FF1A2D4B27F055
:10C970007F471F6096F900305A1C00F0E280A7F252
:10C980001F5140F6833291420AD9A7F58F570C3FC9
:10C99000974207D90220FFF72FFEFF22114B94E0A8
:10C9A000214600E001211B2B12DC152B59DA102B3C
:10C9B00044D004DC002B3ED080F2C380B7E0122BC1
:10C9C00041D03DDB132B00F0BC80142B42D0AEE0F5
:10C9D000232B69D02ADC1C2B134A5DD14AE000BF0F
:10C9E0003F0F002064000020680000206427002022
:10C9F000480F00202CF2FFFF440F002065000020AC
:10CA0000763A010068270020003B01002C3B010022
:10CA1000AA3A0100DA3A0100053B0100400F00206C
:10CA2000A82700204C0F0020490F0020392B4EDD95
:10CA30003A2B5BD07BE000297ED182E0424B00E0C4
:10CA4000424B19707DE0414B1B788B4274D0404AB9
:10CA5000136276E000296FD03E4A002313603E4AFD
:10CA600018E03D4A107848401070002969D0394AD2
:10CA7000153B34E013788B425ED136490B6803F0E6
:10CA80000F00C3F303140A2303FB0403304843607D
:10CA900000230B60137054E0107848401070002998
:10CAA0004FD02C4A1D3B1AE02B4B1A788A4243D1B7
:10CAB00028490A6802F00F00C2F301140A2202FB9F
:10CAC00004022348826000220A601A7039E0224A78
:10CAD000107848401070002933D01E4A243B0121B1
:10CAE00001FA03F31168194311602AE01A4B1B780D
:10CAF0008B4221D1174C0A212368154AC3F3011533
:10CB000003F00F0001FB0500D060C3F34320C3F323
:10CB10004035013801FB05001061980B2060C3F31C
:10CB2000834300F00F0001FB0301516109E00B4852
:10CB300040F2F621FBF7BCFB0220FFF75DFDFF236F
:10CB4000337011B0BDE8F08F480F0020540F002063
:10CB5000A8270020500F0020490F0020443A010070
:10CB600072B6044B1A68511C1CBF01321A60186857
:10CB7000704700BF2C0A0020034B186818B1013819
:10CB8000186000B962B670472C0A0020054B1A786D
:10CB90000AB1002201E0044B01221A70034B01226A
:10CBA0001A707047841100205C0F002000270020BD
:10CBB0002DE9F04F434BABB01B7880468A46914637
:10CBC0001BB1414B01221A7006E0404B1868431C10
:10CBD00002D00521FEF732FE3D4E3E49326809681B
:10CBE000C2F58053652BA8BF0023D018411A48BF57
:10CBF00001F58051C1F57F610F31632911AF0CDC64
:10CC0000354B36491A68384601321A6001F07EFD0C
:10CC10003846FEF70DFB3C4607E0002B304B02DDAB
:10CC200000219954316034681C4408A807A9FEF714
:10CC30006FFF0D9A04F1010B8AB10B9B58460093CC
:10CC40000A9B28490193099B0293089B0393079B26
:10CC500004930C9B013301F059FD451C04E0584638
:10CC6000214901F097FE1525B8F1000F0AD098F878
:10CC700000303BB16019414601F08CFE404601F0A6
:10CC8000E7FE05444A466019514603F09FF9054402
:10CC90006019164901F07EFE03355846FEF7C8FAC2
:10CCA000642D04DD12484FF4EF71FBF701FBBC4229
:10CCB00005D033680A4AA91E1D44D15435602BB0F3
:10CCC000BDE8F08F841100205C0F00206C00002074
:10CCD0008C1100209011002088110020303B0100B1
:10CCE00094110020653B0100873B01009C3B010043
:10CCF0009F3B0100094A0A4B116831B100211160C4
:10CD00001A78013AD2B21A7001E0012111601B7841
:10CD100013B13220FEF7DCBD704700BF94010C4216
:10CD2000550F0020074A002310B51360064C074A30
:10CD300013602368013303D10548FEF74DFD2060E1
:10CD400010BD00BF8C1100206C000020901100204D
:10CD50008DCB00000FB437B506AC54F8045BFFF779
:10CD6000FFFE2946224600200194FFF721FFFFF72E
:10CD700003FF03B0BDE8304004B070470FB437B5CF
:10CD800006AC54F8045BFFF7EBFE29462246054843
:10CD90000194FFF70DFFFFF7EFFE03B0BDE8304051
:10CDA00004B07047B43B010038B505460C4619B9CC
:10CDB0001B48A021FBF77CFA35B11A48294600F040
:10CDC000FDF8002818BF044617490B7823B117480F
:10CDD0002246FFF7BFFF03E015482146FFF7BAFFE1
:10CDE000144D2146104801F0D5FD21462846132256
:10CDF000FDF740FC2C46014628B9E9682846FDF7B6
:10CE0000FAFD014628B10C48FFF7B8FF0023236064
:10CE100002E00A4B02221A60BDE8384000F000BA76
:10CE20009F3B01009E370100CC270020BB3B010047
:10CE3000D23B0100600F0020E43B0100580F0020AE
:10CE400037B5334800F09EF800285FD000F0C2F9F3
:10CE50000020FCF79BFB58B12E4A1368013B002BC6
:10CE6000136038DB2C4826E02B68023423442B6007
:10CE70002A4B2B4A19681268914229D0294A545CDE
:10CE800011460CB91C6014781B6821480133194401
:10CE900022460DF10603FDF789FC204D014668B9D5
:10CEA000BDF80630A342DFDA1A4A1368013B002BB3
:10CEB000136010DB1C48FFF761FF0CE0154A136894
:10CEC000013B002B136006DB1848FFF757FF02E019
:10CED0000F48FDF73CFD00F0A3F9154B05221A7031
:10CEE000144B01221A601448FEF7E2FC3220FEF7D0
:10CEF000EFFC124B1868431C02D00F21FEF79EFC7A
:10CF00000F4B01221A700F4B00221A7003B030BD74
:10CF1000600F0020580F0020FF3B010090110020FF
:10CF20008C110020941100202D3C0100153C0100C3
:10CF3000550F002094010C42F5CC00006C0000203D
:10CF4000841100205C0F00200A4B1A680A4B1B68F2
:10CF5000D31A48BF03F58053B3F5806F074B04DC49
:10CF60001A7832B1064A12781AB900221A70FFF7FD
:10CF700067BF70478C110020901100205C0F0020CB
:10CF80008411002028B1006818B10078003018BF63
:10CF90000120704707B50848694601AAFDF723FE3E
:10CFA00030B9019B9A78009B58085043800A00E0F2
:10CFB000002003B05DF804FB9E370100F0B50D467C
:10CFC0008FB0044620B93C4840F27111FBF770F96C
:10CFD00025B939484FF4B971FBF76AF907A821461A
:10CFE000FDF7A7FD50B1002064E09DF80D30002B47
:10CFF000F9D09DF80C4014F01C040FD007A801A92B
:10D00000FDF7C7FD0028F0D0EDE763B12A5D2A2ABD
:10D0100009D0934207D10134082C04D001AB23443A
:10D020005B7A2E2BF1D12B5D2A2B0AD1661C082CA2
:10D0300008D001AB23445B7A2E2B03D013B101340B
:10D04000F5E726460EAB234413F82B2CAB5DAF1946
:10D050009342D3D133B919480DF10D0101F09AFC77
:10D06000164827E02E2B04D0134840F2A911FBF7F5
:10D070001FF93B782E2BB6D1731CA21B01A90A44C1
:10D080001A44527A32B1E95C2A2903D08A4201D18A
:10D090000133F2E7EC18EB5C2A2BDCD09A42ADD1DD
:10D0A00022B105484FF4DF71FBF702F92378002B1A
:10D0B000D1D098E70FB0F0BD583C01009D21002071
:10D0C00030B5224D87B001AC0FCD0FC42B6820487E
:10D0D00001212360FBF726FA1E480121FBF722FA03
:10D0E0001D4B0C221D4D1A601D4B0124284601A921
:10D0F00003938DF81240FBF7B3FF00210B236B6500
:10D1000003200B460422FBF7AFFD02200146042258
:10D110000023FBF7A9FD0220024623460321FBF76B
:10D12000A3FD2346022005210422FBF79DFD0421D7
:10D130000A4602200023FBF797FD02200621224623
:10D140000023FBF791FD07B030BD00BF443C010058
:10D150000022020000C202009821002000C8004006
:10D16000A0860100FFF7ACBF044B01461A6812B15C
:10D170001A68013A1A600248FBF7AABFE0230020B0
:10D1800000C80040064B10B51B684FF4FA745C43AE
:10D19000FF20FFF7E9FFFF2801D0013CF8D110BDC7
:10D1A00098210020024B20229A65FF20FFF7DCBF68
:10D1B0000060004008B5064B2022DA65FFF7E2FF69
:10D1C000FF2803D0FFF7EEFF002008BD012008BDB7
:10D1D00000600040104B10B501241C6021460F4830
:10D1E000FBF7A0F90220014604220023FBF73CFDD7
:10D1F0000220024623460321FBF736FD2346022088
:10D2000005210422FBF730FDBDE810400421022077
:10D210000A460023FBF728BD000F0C420022020043
:10D2200008B5FFF7C7FFFFF7BDFFFFF7C3FFFFF725
:10D23000B9FF10480021FBF775F9022000220146D2
:10D240001346FBF711FD0022134602200321FBF7D2
:10D250000BFD0022134602200521FBF705FD0022ED
:10D26000134602200421FBF7FFFC034B00221A6047
:10D2700008BD00BF00220200000F0C4208B5FFF7F6
:10D28000CFFFBDE808400148FBF796BE00C800404C
:10D29000F8B50C21042201230220FBF7E5FC474CE2
:10D2A000474A2378474E11683370154609B1022268
:10D2B00022702278052A69D8DFE802F01A1F033AA3
:10D2C0006666022B14D04048FFF744FD02203E4919
:10D2D000FFF71CF900210A460A20FFF74BF900204E
:10D2E0003A4B082102461870FCF786FAFFF7C6FF92
:10D2F0002B68002B48D101232370227833789A427F
:10D300000DD03348FFF726FD02203149FFF7FEF824
:10D3100000210A200A46FFF72DF9FFF7D1FE002071
:10D32000FCF734F980BB03232A482370FFF712FD72
:10D3300000202649FDF786F90746B8B90423264898
:10D340002370FFF707FDFFF725FE054628B32946A2
:10D350002248FFF7FFFC2A4602202149FFF7D6F8B2
:10D360000A2039463A46FFF705F916E005231D481D
:10D370002370FFF703FD02201B49FFF7C7F80021C8
:10D380000A200A46FFF7F6F8002507E01748F321C0
:10D390000025FAF78DFF257000E00125227833780B
:10D3A0009A4202D0124B01221A70002202200C2154
:10D3B0001346FBF759FC2846F8BD00BF9C2100200E
:10D3C000980C0C42942100206D3C0100AC210020FF
:10D3D0007D3C01008E3C0100A23C0100BE3C0100EE
:10D3E000D13C0100E03C0100F53C0100583C01004B
:10D3F00000270020F8B5254B64241B6806465C43D3
:10D400000D46FF20FFF7B0FEFF2802D1013CF8D106
:10D410003AE0FE2838D11E4BAC1C586819685A688F
:10D4200022F00F0242F00D025A601A6842F0805258
:10D430001A604FF44062DA60164A1768A74229BFA3
:10D4400014680024023CC5EB040414604FF6FF721C
:10D45000DA6300230E4A4FF6FF74D463146924067E
:10D46000FCD50B4AF418526AF2540233C2F3072275
:10D470009D426270EED1064B1A691206FBD55A6ABC
:10D48000586019600120F8BD0020F8BD98210020E7
:10D4900000C80040E023002070B504460D46FFF7A9
:10D4A00071FEFF2847D12846FFF75EFEFD2D44D0D0
:10D4B000234B586819685A6822F00F0242F00D0297
:10D4C0005A601A6842F080521A604FF44062DA6083
:10D4D0001C4B40F201221D6895428ABF1A68002247
:10D4E000A2F202221A600023E2185578E25C42EAB6
:10D4F0000525134A16697606FBD50233B3F5007F7E
:10D50000D563F1D113695C06FCD50D4B4FF6FF7264
:10D51000DA630B4B1A699206FBD54FF44062DA606E
:10D5200058601960FF20FFF71FFE00F01F00431F27
:10D530005842584170BD002070BD012070BD00BF31
:10D5400000C80040E0230020020638B504460D461E
:10D5500007D537200021FFF7F7FF012830D804F066
:10D560007F04FFF71FFEFFF725FE40B344F04000A5
:10D57000FFF7FAFD280EFFF7F7FDC5F30740FFF7A9
:10D58000F3FDC5F30720FFF7EFFDE8B2FFF7ECFD71
:10D5900024B1082C0CBF8720012000E09520FFF764
:10D5A000E3FD0C2C02D1FF20FFF7DEFD0A24FF2053
:10D5B000FFF7DAFD030603D5013CF8D138BDFF20A3
:10D5C00038BD000008B5044A04480021FBF7AAFC56
:10D5D000034B0C221A6008BDA086010000C8004061
:10D5E0009821002008B5054A05480021FBF79AFC60
:10D5F000044B4FF47A721A6008BD00BF00127A0023
:10D6000000C8004098210020024B034A1B68584381
:10D610001060704798210020E0230020034B186819
:10D62000D0F1010038BF0020704700BFE023002088
:10D63000F0B572B6114A1368591C1CBF0133136050
:10D640000F4B93E8F00018695969136823B10B4A2E
:10D65000013B136003B962B63A0442EAC6220223D0
:10D6600094FBF3F342EA45121A4301F1140342EA30
:10D670004363013043EA4050F0BD00BF2C0A002054
:10D6800068270020024A01231370024A1370704772
:10D69000E42300200027002010B51348134CFFF7A7
:10D6A0006DFB202363606420FEF742F9104BDA69BA
:10D6B000920717D401225A610223A3630D4B5A68C3
:10D6C0000B4BDB699B070AD40A4B5B689B1A23F060
:10D6D0007F43B3F5203FF3D90748FFF74FFB034BD8
:10D6E00003229A6310BD00BF063D010000A0004068
:10D6F0000060004000000840333D010010B51D48A7
:10D700000121FAF70FFF1C480121FAF70BFF012155
:10D710000B4600200A22FBF7A7FA002001460A2246
:10D720000123FBF7A1FA1548032383631449FBF790
:10D730000DFD144C144B4FF48072C3F88021214628
:10D740001A600120FDF7DAFF00220C210120FDF70D
:10D75000E9FF0120FEF724F821460220FDF7CEFF65
:10D76000022017210022FDF7DDFFBDE81040022056
:10D77000FEF716B800C2020000F2020000A000404E
:10D780007400002085D6000000E100E008B5074BDA
:10D790004FF48072C3F880200548FBF7FDFCBDE81C
:10D7A000084004480021FAF7BDBE00BF00E100E0D8
:10D7B00000A0004000F2020008B50348FBF7F8FCA7
:10D7C000024B187008BD00BF00A00040DA270020FF
:10D7D00070B510F47F4F88B0044604D0244840F25E
:10D7E0001111FAF765FD0A23ADF80C300423ADF8EA
:10D7F0000E306B4404930123ADF8143002AB069352
:10D800001C48022303A9ADF81C308DF80440FBF737
:10D8100017FE194B18701A781D4612F0800F01D0B0
:10D8200018781BE0154B5E682B78134C012B12D136
:10D83000134B1A6922F004021A6130BF0F4B5B6868
:10D840009B1B23F07F43B3F5804FEDD9FFF724FFF7
:10D85000F6232370E8E7237813B1207840B205E07F
:10D860009DF809009DF8083043EA002008B070BD1B
:10D87000593D010000A00040DA27002000000840C8
:10D8800000ED00E070B510F47F4F86B004460D4601
:10D89000164604D127484FF4AF71FAF709FD25B9B0
:10D8A000244840F25F11FAF703FD230A9E4207D293
:10D8B00020484FF4B071FAF7FBFC6FF00A0037E034
:10D8C0000A22ADF804200422ADF8062000AA029234
:10D8D0001948012201A9ADF80C200495ADF81430C7
:10D8E0008DF80040FBF7ACFD144B18701A781D46FC
:10D8F00012F0800F01D0187819E0114B5E682B7878
:10D900000E4C012B12D10F4B1A6922F004021A613E
:10D9100030BF0B4B5B689B1B23F07F43B3F5804FFD
:10D92000EDD9FFF7B9FEF6232370E8E7207840B27F
:10D9300006B070BD593D010000A00040DA2700206C
:10D940000000084000ED00E010B504468AB0092050
:10D95000FFF73EFF002806DA4F4B80B218804F4891
:10D96000FFF70CFA96E0022C51D14FF48150694632
:10D970002822FFF787FF18B949486946FFF7EAF9F7
:10D9800041F2230069462822FFF77CFF18B9454879
:10D990006946FFF7DFF941F2210069462822FFF7C7
:10D9A00071FF18B940486946FFF7D4F941F22200E7
:10D9B00069462822FFF766FF18B93C486946FFF719
:10D9C000C9F91C20FFF704FF011E02DB3848FFF7EE
:10D9D000C1F91920FFF7FCFE021E08DB4FF47A7331
:10D9E00092FBF3F1334803FB1122FFF7B3F9182040
:10D9F000FFF7EEFE011E02DB2F48FFF7ABF9102008
:10DA0000FFF7E6FE011E02DB2C48FFF7A3F90F200B
:10DA1000FFF7DEFE011E07DB294B8AB21A80C4B174
:10DA20002848FFF797F900E09CB11120FFF7D0FEDE
:10DA3000011E0EDB4FF6FD73994203DD2248FFF70E
:10DA400089F906E04FF4B462204891FBF2F2FFF747
:10DA500081F90920FFF7BCFE002812DB0E4B82B2D1
:10DA60001A805CB14FF47A7290FBF2F102FB110262
:10DA70006423174892FBF3F2FFF76CF90520FEF7D9
:10DA8000AFFD3CB10A20FFF7A3FE011E02DB1148E7
:10DA9000FFF760F90AB010BD70000020713D010071
:10DAA0008F3D0100AE3D0100CD3D0100EC3D010088
:10DAB0000B3E01002C3E01005A3E01007C3E01005D
:10DAC000DC2700209E3E0100C03E0100EE3E01002A
:10DAD000163F01003A3F0100044B1A7822B10022A0
